:020000041000EA
:1000000000400020C91900009D150000A115000046
:1000100000000000000000000000000000000000E0
:10002000000000000000000000000000C5190000F2
:100030000000000000000000C5190000C519000004
:1000400099180000C5190000C5190000C519000065
:10005000C5190000C5190000C5190000C519000028
:10006000C5190000C5190000C5190000C519000018
:10007000C5190000C5190000C5190000C519000008
:10008000C5190000C5190000C5190000C5190000F8
:10009000C5190000C5190000C5190000C5190000E8
:1000A000C5190000C5190000C5190000C5190000D8
:1000B000C5190000C5190000C5190000C5190000C8
:1000C000F0B503AF81B00146F020C043CA430243FC
:1000D000501807285ED8C04678440079400087440D
:1000E000035E1F2B096683477648006801787F22EC
:1000F0000A4059E0734804680020A0700420607032
:10010000012020710220E070207880210140481CED
:10011000207001F06BFD6071000AA07101B0F0BDAC
:10012000012001F00BF9002837D15A480068C07847
:1001300006282CD2664954E001F04CFD5C4C206846
:100140001025A8432060206820263043206001F05D
:10015000F9FC2068284320602068B04320605B4899
:10016000016804229143016001F0FCFA01B0F0BD86
:100170004748007800280DD00124204601F0DEF821
:1001800000280AD143480068C07802283CD30820E0
:10019000012100E0062001F0BFF801B0F0BD4948A0
:1001A0000068017880220A43027001B0F0BD39482E
:1001B00000684178827812025118C01C01F044F99D
:1001C0004049096800228A7004224A708871020A34
:1001D0004A71020C0A71000EC87008788022024031
:1001E000501C087001B0F0BD3648006801788022CC
:1001F0000A40511C0170401C26490968491C324ABA
:1002000003F088FB01B0F0BD2349086023490C606E
:10021000BFF34F8FBFF36F8F03210A03204D2B686D
:1002200093432B6009052A688A432A601D490022EE
:100230000A601D490A601D4A1D4900280FD0501D43
:100240004860084618381B4A02601C391A48086082
:100250000220002135230A4601F056FC0FE0084633
:100260001838026008461C38052212040260134840
:1002700048600220002143230A4601F027FC281F82
:1002800008210160202101600D48046001B0F0BD2B
:100290006A3C0000703C00004C20002080E100E03F
:1002A00008010040542000205020002000000505D7
:1002B00084000140151500000000151215121515D7
:1002C00000E100E06C3C0000FF1F000010ED00E0CA
:1002D0005C20002080B500AF002001F00DF805483B
:1002E00000680178FF2900D922E2880002A2105894
:1002F0008746C046703C0000370700002907000011
:10030000290700002907000029070000290700002D
:10031000290700002907000029070000290700001D
:10032000290700002907000029070000290700000D
:100330002907000029070000F9060000F90600005F
:10034000F9060000F9060000F9060000F9060000B1
:10035000F9060000F9060000F9060000F9060000A1
:10036000F9060000F9060000F9060000F906000091
:10037000F9060000F906000001070000010700006F
:10038000010700000107000001070000010700004D
:10039000010700000107000001070000010700003D
:1003A000010700000107000001070000010700002D
:1003B00001070000010700001907000019070000ED
:1003C00019070000190700001907000019070000AD
:1003D000190700001907000019070000190700009D
:1003E000190700001907000019070000190700008D
:1003F000190700001907000009070000090700009D
:1004000009070000090700000907000009070000AC
:10041000090700000907000009070000090700009C
:10042000090700000907000009070000090700008C
:10043000090700000907000011070000110700006C
:10044000110700001107000011070000110700004C
:10045000110700001107000011070000110700003C
:10046000110700001107000011070000110700002C
:1004700011070000110700002107000021070000FC
:1004800021070000210700002107000021070000CC
:1004900021070000210700002107000021070000BC
:1004A00021070000210700002107000021070000AC
:1004B000210700002107000031070000310700007C
:1004C000310700003107000031070000310700004C
:1004D000310700003107000031070000310700003C
:1004E000310700003107000031070000310700002C
:1004F000310700003107000031070000310700001C
:1006F0003107000037070000084600F01DF880BDF4
:10070000084600F025F880BD084600F047F980BD96
:10071000084600F039FB80BD084600F089F880BD2E
:10072000084600F019FC80BD0846FFF7C9FC80BDF3
:10073000062000F0F1FD80BD80B500AF0146000746
:1007400003D0062000F0E8FD80BD01F08DFD80BDE6
:10075000B0B502AF01460F200840012819D000288B
:1007600028D1032000F0EAFD002826D12D4800689A
:10077000C178027912025418417900222B4B9D5AFC
:10078000A0B2A84224D0921C162AF8D10820012138
:1007900011E0234C2188002910D0224800684278BB
:1007A00083781B029A184B009A420BD2092000F062
:1007B000A3FDB0BD062000F0AFFDB0BD0B2000F0E2
:1007C0009BFDB0BD934208D20A2000F095FDB0BD5C
:1007D00002291FD308200221EDE7C01C02F054F8C3
:1007E00002F03EF8002802D001F0F4F9F8E7218881
:1007F0000D480568E81C891C89B202F039F8287890
:1008000080210140481C28702088801C6870000AE4
:10081000A870B0BD01F072FD01480480B0BDC046B3
:100820005A200020703C00006C3C0000543C00004A
:10083000F0B503AF81B001460F200840032800D96E
:1008400080E0C0467844007940008744016B2A4C20
:10085000042000F073FD002877D14E480468002082
:1008600021564D48002900DB401C49490A68D178CF
:1008700013791B025D18A9B2884260D390790002F7
:1008800003B2002B00D580E05279821810047CD08E
:10089000E01C92B202F052FEE809A070680060709D
:1008A00039E03B48056868780090AE78EC78012024
:1008B00000F044FD002848D1102C40D230020099AD
:1008C0004618721ED0075BD1291D32480568281DC5
:1008D00092B25308224602F0E3FD300AA8706E700F
:1008E0007720E87045E02A48006841788278120253
:1008F00051184D1EE90743D1011D26480468201DEB
:10090000AAB2520802F0F8FDE809A0706800401C85
:1009100060707720E070207880210140481C2070B2
:1009200001B0F0BD1A48056868780090AE78EC78A0
:10093000012000F003FD002807D1102C07D3082068
:10094000012100E0062000F0E7FC01B0F0BD30021C
:1009500000994018461EF00712D1291D0D48056860
:10096000E81CB2B25308224602F020FB300AA870FD
:100970006E70287880210140481C287001B0F0BDBD
:10098000092000F0B9FC01B0F0BD08200221DAE72F
:10099000703C00006C3C0000FD070000F0B503AFA8
:1009A00085B001460F2008400B2800D923E1400004
:1009B00078448088400087440B008B0060007700FB
:1009C0003D00D800DD00890019013F00FB001C003C
:1009D000012000F0B3FC002800D00FE19C48006823
:1009E000C478201FC0B2FC2800D90BE108200121E7
:1009F00002E1012000F0A2FC002800D0FEE000F09F
:100A0000BBFC002800D0F9E0904804680020A070EA
:100A100004206070207880210140481C20708C48A0
:100A20000068C07802F072FDE070010EA171010C47
:100A30006171D7E0002099E086480078002800D155
:100A4000DEE0401EC0B202F0DFFB848801F0EEFB66
:100A500002F0BEFD7D490D68E91C6600B2B200F0EF
:100A6000B5FC01F0D9FBE009A8706E7028788021F0
:100A70000140481C287005B0F0BD012000F05EFC6C
:100A8000002800D0BAE000F077FC002800D0B5E0E4
:100A90006F480468E07802F0D7FAE1786D48027890
:100AA000521E8A425DD0A9E0012000F047FC0028D8
:100AB00000D0A3E000F060FC002800D09EE0644875
:100AC0000068C07802F0A8FB05B0F0BD00208EE001
:100AD000152000F033FC002800D08FE000F04CFC23
:100AE000002800D08AE05A480468207B69460872D2
:100AF000607B487220796279120210180880A07910
:100B0000E279120210184880207A627A12021018D4
:100B10008880A07AE27A12021018C880A07BE27B5B
:100B2000120210184881207C627C12021018888101
:100B3000A07CE27C12021018C881207D627D120226
:100B400010180882A07DE27D120210184882E07819
:100B500001F0D2FE002861D0E1783E4802788A4256
:100B60004CD90021017005B0F0BD012000F076F8ED
:100B700005B0F0BD0124204600F0E0FB00283DD187
:100B800000F0FAFB002839D131480568E87802F016
:100B90003BFB6978AA78120251180288520093B27E
:100BA00099423DD9224392B291423ED90A2038E07F
:100BB000012000F0C3FB002820D100F0DDFB00285D
:100BC0001CD1224804680020A070022060702078A8
:100BD00080210140481C20701D480068C07802F048
:100BE000BFFBE070000A207105B0F0BD012000F0ED
:100BF0008BF805B0F0BD062000F08EFB05B0F0BD0F
:100C00000B200EE0204601F06BFE002806D01148B4
:100C1000002101701048047005B0F0BD0C2000E008
:100C2000092000F069FB05B0F0BD044601F0FEFAB2
:100C300002F0C4FC01462288281D5204120C00F068
:100C4000C5FB01F0E9FA05B0F0BDC0466C3C000000
:100C5000703C00005920002058200020F0B503AF60
:100C600083B005460126304600F068FB002803D11A
:100C700000F082FB002801D003B0F0BD20480468DA
:100C8000E078029002F0C0FA6178A278120251185E
:100C9000028883889A18520093B2994205D9324348
:100CA00092B2914206D90A2000E0092000F024FB0C
:100CB00003B0F0BD0646019001F0B8FA02F07EFCE8
:100CC00001463088261D4004020C304600F07EFBB1
:100CD00001F0A2FA01980088400032180021002D8E
:100CE00004D0029C204602F009FB03E0029C20464F
:100CF00002F0D4FA601C0349087003B0F0BDC0468E
:100D0000703C000059200020F0B503AF81B00546CB
:100D10000126304600F012FB002803D100F02CFB26
:100D2000002801D001B0F0BD15480468E0780090BB
:100D300002F06AFA6178A2781202511880884000A5
:100D400082B2914205D9304380B2814206D90A204D
:100D500000E0092000F0D0FA01B0F0BD221D002112
:100D6000002D04D0009C204602F0C8FA03E0009C4D
:100D7000204602F093FA601C0249087001B0F0BDF1
:100D8000703C000059200020D0B502AF86B001466B
:100D90000F200840042845D8784400794000874453
:100DA00002332C2E1300152000F0C8FA00283CD185
:100DB0003D48007800283AD03E490A68D1788842F8
:100DC00037D2082001212EE037480078002802D1D0
:100DD0000B2000F091FA354804680020A070022032
:100DE0006070207880210140481C207002F070FD66
:100DF000E070000A207106B0D0BD002000E00120A4
:100E000000F05AF806B0D0BD27480078002802D17B
:100E10000B2000F071FA02F02DFD25480021017031
:100E200006B0D0BD062000F077FA06B0D0BD0B208A
:100E300036E0137B01A80372537B43721379547914
:100E40002402E31803809379D4792402E3184380C1
:100E5000137A547A2402E3188380937AD47A240292
:100E6000E318C380937BD47B2402E3184381137C73
:100E7000547C2402E3188381937CD47C2402E318FD
:100E8000C381137D547D2402E3180382937DD27DB8
:100E90001202D218428202F0FFFC0028BDD10C20C1
:100EA00000F02AFA06B0D0BD582000206C3C0000AB
:100EB00059200020703C0000F0B503AF81B005461A
:100EC0000126304600F03AFA002803D100F054FA27
:100ED000002801D001B0F0BD1D480468E078009002
:100EE00002F092F96278A17809028B180188490012
:100EF0008AB2934205D9314389B28B4206D90A207E
:100F000000E0092000F0F8F901B0F0BD064601F05C
:100F10008DF902F053FB01463288201D5204120C59
:100F200000F054FA01F078F90021002D05D0009C62
:100F300020460A4602F0E2F904E0009C20460A46F8
:100F400002F0ACF9601C0349087001B0F0BDC04666
:100F5000703C000059200020F0B503AF83B001467B
:100F60000F200840082800D9FAE0C04678440079EC
:100F7000400087440468166114B1D266D7008148E6
:100F80000068017880220A40511C017000218170A4
:100F9000012141707C490978C17003B0F0BD002087
:100FA0004BE0012000F0CAF9002800D0DBE000F09F
:100FB000E3F9002800D0D6E071480068C07802F05C
:100FC00023F97049096802880292CA7043884B71FC
:100FD0008488CC71C5884D7246894E73828901928E
:100FE000CA73C28900924A74027ACA72427A0A7338
:100FF000029A120A0A711A0A8A71220A0A722A0AC3
:101000008A72320A8A73019A120A0A74009A120AC0
:101010008A7400228A7014224A70028ACA74408A32
:101020004875120A0A75000A8875087880220240FD
:10103000501C087003B0F0BD012000F0A7F803B009
:10104000F0BD00206AE00124204600F077F9002876
:1010500000D088E000F090F9002800D083E04848F4
:101060000068C07802F0D0F84649096800228A700A
:1010700014224A708288CA7143884B710088C870F4
:10108000DD098D755D004D75160A0E721E0A8E7192
:10109000000A08716B434B746A434A7308788025D1
:1010A0000540681C0870180E0875180CC874180ADA
:1010B0008874100E0874100CC873100A88735800D6
:1010C0001018A20380184872020E0A73020CCA722A
:1010D000000A887203B0F0BD012000F02FF900284B
:1010E00041D100F049F900283DD125480568E8784C
:1010F00002F08AF80446E87822490D68E91C02F0FB
:10110000A1F8287880210140481C28706088C10916
:10111000A9704000687003B0F0BD012000F09EF897
:1011200003B0F0BD0124204600F008F900281AD1D0
:1011300000F022F9002816D111480568E87802F07D
:1011400063F86978AA78120251184088400082B288
:1011500091420AD9204380B281420BD90A2005E08E
:10116000062000F0D9F803B0F0BD092000F0C4F863
:1011700003B0F0BDE878291D02F07AF803B0F0BDA5
:10118000703C00006C3C000058200020F0B503AF1C
:1011900087B00446072000F0D1F8002855D100F0B0
:1011A000EBF8002851D12A480568287969790902A5
:1011B00008180590A8790004E97909060818049030
:1011C0002448066830780090287A0390687A029064
:1011D000E87802F019F842880694002C019201D1B7
:1011E000104600E080880599049A52180299090275
:1011F0000023039C091912D0019C604340009042D7
:101200000DD9009B5C0904232340134C5C40A14290
:101210000B4600D32346D118814200D9831A73703C
:10122000180AB070307880210140481C30701804D2
:10123000069C0AD0E978F01C9BB2002C03D002F087
:10124000EDF807B0F0BD02F005F907B0F0BDC046FB
:10125000703C00006C3C0000FC1F0000F0B503AFC8
:1012600085B00446052000F069F8002840D100F060
:1012700083F800283CD11F480568287903906879D5
:101280000090A8790290E87901906878A97809021D
:101290000818401F04900604E87801F0B5FF002EFE
:1012A00026D000990902039A8918029A1204019B18
:1012B0001B069A1852184188002C01D1084600E0FC
:1012C00080884843400004998BB2D118814204D9E8
:1012D0000A2000F011F805B0F0BDE978083528467D
:1012E000002C03D002F056F805B0F0BD02F070F803
:1012F00005B0F0BD703C00000649096800228A7004
:101300004A707F22024008788023034098180870B2
:101310007047C0466C3C0000074A12680023937077
:1013200001235370D1707F21014010788023034046
:10133000581810707047C0466C3C0000D0B502AF22
:101340000B4909684A78897809028918814209DAC3
:10135000084A1268002393705370137880241C404D
:10136000E31D1370814201DB0020D0BD0120D0BD00
:10137000703C00006C3C000011480078002806D04A
:1013800010490968C97881420DD2002070470E4883
:101390000068002181704170017880220A400B3280
:1013A0000270012070470848016800208870012001
:1013B0004870C8700A788023134008330B70704758
:1013C00058200020703C00006C3C0000F0B503AFDA
:1013D00081B014460D460646592000210A4600F009
:1013E0002FFB30462946224600F044FB084C20687B
:1013F0000125A8432060074E3068C00702D000F0E6
:10140000E9FBF9E720682843206001B0F0BDC04641
:101410000001004704000047F0B503AF81B00C1D88
:10142000944201D900240BE005460E4600F00CF86A
:10143000010EA955A919C870020A8A70000C4870DB
:10144000204601B0F0BDD4D4F0B503AF81B00C4656
:1014500006461B494B1C1B4A10680093184310603A
:101460005068084050600025E9430A2000F0E2FA85
:10147000492029462A4600F0E3FA11208506304625
:101480002946224600F0F6FA0F4908680124A043D5
:1014900008600E4E3068C00702D000F09BFBF9E7F1
:1014A00009490868204308606868064B5968009A33
:1014B000114359601968024A1140196001B0F0BD2A
:1014C000FFFFFF7F4C000040000100470400004781
:1014D00080B500AF042901D2012080BDFFF7B4FF21
:1014E00080BDD4D480B500AF84B000F06DF826483C
:1014F00000680290254800680090401C0190244E2E
:10150000244D254C00F048F903E000F063FB00F0A7
:1015100029FB28780028F8D00C20FFF7EDFE216881
:10152000301D814201D1022019E0019A10785278D1
:10153000120213180020029A105603904409042046
:1015400004403246361B9E4203D203201646124CFC
:1015500005E00C1BE41E9C4216460F4C04D2FFF71C
:10156000CBFE00F019F9D4E70398002804D4FEF765
:10157000B1FE00F011F9CCE70098FFF7A9FF0028B1
:10158000F5D00520EBE7C0466C3C0000703C000045
:10159000FC1F000044200020482000207047D4D4C5
:1015A00006480168102291430160BFF34F8F044841
:1015B00004490160BFF34F8F00BFFDE78400014085
:1015C0000CED00E00400FA05F0B503AF81B072B68F
:1015D0004C480221016000F0FDFA4B4D01246C6182
:1015E00028684A4901406031296020032968814305
:1015F00029606003296881432960A00229680143AA
:101600002960686A400405D4A60300F0E3FA686A1A
:101610003042FAD020022968014329603C4805780D
:10162000002D01D03C4800E03A483C490A6802439A
:101630000A604A6882434A6039480068772101702D
:10164000002686704670374806603748066037487F
:1016500006603748067037480670374806803748B6
:1016600006703748374A3849002D10D04A600A467C
:10167000183A364B13600A461C3A05231B041360C4
:1016800030220A60886000F075FA314806E04A644A
:1016900030220A60886000F085FA2E48011DE122A0
:1016A000120102600E602C480460BFF34F8FBFF33D
:1016B0006F8F03200103294E32688A433260002D68
:1016C0000DD00005316881433160022000214323A1
:1016D0000A4600F0FBF9301F2021016005E00220DE
:1016E000002163230A4600F0F1F9301F0821016050
:1016F0001B480460472000060168A143016062B6F0
:1017000001B0F0BD04300040000300400030FFFF96
:101710006A3C000000000260000001604C000040D4
:101720006C3C00004C200020502000205420002061
:1017300058200020592000205A2000205C20002042
:101740000202000015121515840001400000050575
:10175000000800410009004180E100E0080100406C
:1017600000E100E0F0B503AF81B00125A802094C0B
:10177000216801432160606A400405D4AE0300F093
:1017800029FA606A3042FAD02802216801432160B8
:1017900001B0F0BD00030040F0B503AF87B033489F
:1017A000002101703248006881704170069001701C
:1017B0003048056868566978AA7812025118C91C21
:1017C00001267403002804D528462246FFF724FE8C
:1017D0000146029104950594274800780028019657
:1017E00009D000F0C7F9254C2546203503941C3458
:1017F0000221009609E000F0D5F9214C254620355C
:1018000003941C34032000900421682000263246F3
:1018100000F016F904982146029A00F02BF9702086
:101820000099324600F02EF928460699059A00F0F4
:1018300045F9019BD84313490A6802400A601249DE
:101840000A6802400A6003990868184308600F4854
:101850000168072291430E4A12780A4302600D483C
:10186000016820220A43026007B0F0BD4420002036
:10187000703C00006C3C00006A3C00000008004125
:10188000000900410001004700020047000300403A
:101890005C20002084000140F0B503AF81B03A48DD
:1018A00002683A490E780168490931404B00120735
:1018B000D40F1A1965D0364D2B6820200090834331
:1018C0002B60344B1D68072085431D60324800683B
:1018D000401C012510420CD03048026801231A43F5
:1018E00002602F4A106818431060002E15D02E4E4B
:1018F00014E02F480368002E1FD0002C1DD02D4867
:101900000268541C0460D01E42424241042B00D0A5
:101910001546012D1C4A1BD02AE0224E3068984300
:10192000306058031269801A204A1060204A01D0A2
:10193000002301E01068431C13601E480068001F6C
:1019400042424241042B00D01546002D0E4A0DD0D4
:101950000F4A1068102188431060BFF34F8F17485B
:1019600017490160BFF34F8F00BFFDE7002C01D086
:1019700008201060002901D0009810600E48012155
:10198000017001B0F0BDC046040100406A3C000097
:1019900084000140000300404C200020000100476B
:1019A00000020047000900410008004148200020D3
:1019B0005020002054200020442000200CED00E0A6
:1019C0000400FA05FEE7D4D480B500AF00F02AF891
:1019D0001048114900E00C31814209D28A68002A7E
:1019E000F9D018C9083920CB20C4521EFBD1F2E728
:1019F0000A4C0B4D00E00835A54208D26968002961
:101A0000F9D028688A00002101F0BCFFF3E701F05B
:101A1000EDFFC04694400010884000109440001034
:101A2000944000100120C003014908607047C0467F
:101A300000000020014A506011607047040000441B
:101A4000F0B503AF084B1C68012525431D60002439
:101A50005C61064C25680F26B5430D43256004499B
:101A60000A605860F0BDC046000100470400004015
:101A700060200020024B186059609A607047C04691
:101A800008010047F0B503AF094B1C680125254349
:101A90001D6000245C610F242402064D2E68A643BD
:101AA00009023143296004490A605860F0BDC0460C
:101AB000000200470400004064200020024B186030
:101AC00059609A607047C04608020047F0B503AFFE
:101AD000FF2425060B4C6668AE431B06F3186360B3
:101AE000F3231B0300031840FD239B0389031940C4
:101AF0000143D00308430F21090322688A430243AC
:101B00002260F0BD08010040F0B503AFFF242502BC
:101B10000B4CA668AE431B02F318A360F3231B050E
:101B200000051840FD239B05890519400143D00598
:101B300008430F21090522688A4302432260F0BD51
:101B400008010040054800210160054801680422A1
:101B50000A430260BFF34F8F30BF70474800004018
:101B600010ED00E002480121016030BF7047C0461F
:101B700044000040D0B502AF094802680368012163
:101B80008B4303600B0204681C43046004689C439D
:101B90000460D20702D002680A430260D0BDC0468A
:101BA00000080041D0B502AF09480268036801216E
:101BB0008B4303600B0204681C43046004689C436D
:101BC0000460D20702D002680A430260D0BDC0465A
:101BD0000009004104485A2101600168C907FAD090
:101BE000A52101607047C04600300040FF2024302E
:101BF0007047D4D4F0B503AF81B023214C062568DB
:101C00000E4EFF2131600E4941182022204601F07E
:101C100081FE002000903060206880210143216017
:101C200020684021014321600220284021680143AF
:101C300001200843206001B0F0BDC04654000040C0
:101C400000000147D0B502AF82B0074CFF232360EC
:101C5000064B0B400649591801F05CFE002001902C
:101C6000206002B0D0BDC04654000040FFFF03001A
:101C700000000147024900220A800249088070479B
:101C80006A20002068200020034800880349098852
:101C90004901401880B27047682000206A20002067
:101CA000F0B503AFB3B0016A059141690491816851
:101CB0000391C188199186884188079128A91CC879
:101CC0001CC13CC83CC13CC83CC1079AFF20202431
:101CD000B242014600D82146199BFF2B00D801468D
:101CE000B24200D804460691FF2B00D80446002AD1
:101CF00000D1AEE0282128A8415E13912621415E43
:101D00000B912421415E02911C21415E18911A2100
:101D1000415E0A911821415E01911021415E1791A7
:101D20000E21415E09910C21405E009070001290DE
:101D30000F2040031C900020014610960F9405E0F0
:101D4000089988B2079A904200D382E01B91069DC1
:101D500041190891914201D91B99551A28A94D8022
:101D6000002EEDD002994143059A89180E910199F0
:101D70004143049A89180D910099484303994018EA
:101D80000C9000200146149505E0119988B2109E30
:101D9000B0420F9CD4D202191192B24200D9741AE7
:101DA00028A916948C80002BEFD00B9941430E9AF2
:101DB00056180A9941430D9A51181B9109994843A5
:101DC0000C9908181A90169840001590002528467E
:101DD00004E0A5B2199B9D422046D6D22C46FF3482
:101DE0009C4201D8FF2100E0191A28A8C180002DCB
:101DF000314600D01C993091189969431B9A5118AB
:101E00002D91179969431A9A51182A9100F026F8D2
:101E1000002DDED01DA802210185C184129A828482
:101E200081834183159B03830182C18182810121CA
:101E3000C1801699818014994180074901801C99BD
:101E4000229113994D43A91925911F9100F006F88D
:101E5000BFE733B0F0BDC04601030000F0B503AFEB
:101E60008FB0017809024278120451184288120694
:101E700089180D910179C2881202511889B28368BC
:101E80001A0451180C91848955490C40032292037D
:101E90009D0815402C19C5890D401B0913405B197D
:101EA0001B041B190B93038A0B4044692504EB1890
:101EB0000A93038B0B40A5081540EB18458B0D408A
:101EC0002409144064192404E3180993838B0B40FC
:101ED000046A2504EB180893A3081340858C0D4071
:101EE0005B1924091440C28C0A40A2181204D218AB
:101EF0000792008D084006903A49FF200190086043
:101F000039480088394909880591490140180290EB
:101F100082B237480D991154009210180A0EC270FF
:101F20000A0C8270090A417006990177079E0676AD
:101F3000089D0575099A02740A9B03730B9C039410
:101F400004720C9C049404710C0EC4770C0C8477FE
:101F5000090A4177310EC176310C8176310A41761A
:101F6000290EC175290C8175290A4175110EC1749C
:101F7000110C8174110A4174190EC173190C81730B
:101F8000190A184B4173039A110EC172110C817218
:101F9000110A4172049A110EC171110C8171110A5A
:101FA000417100200E9018600599002912D0019906
:101FB00019601049009A5218491C1140029A0C4CA1
:101FC0000A550919120A4A700E90186007490888C4
:101FD000401C01E00120054908800FB0F0BDC0465B
:101FE000FF3F000054000040682000206A200020CD
:101FF00000000147FEFF0300F0B503AF8BB00446BD
:102000006846002505850226C6840682C581BD680E
:10201000C580FE6886804380084B038073008384FC
:1020200083836B0083810894059202910121490406
:102030000691FFF735FE0BB0F0BDC046030200006D
:10204000F0B503AF8BB0044668460025058502262F
:10205000C684868345830682C380BD6885804280AE
:102060006A0082845A0002838322920002800894CC
:10207000059106490391F9683A6951180122120441
:1020800089180291FFF70CFE0BB0F0BD02000200B0
:10209000F0B503AF8BB00446684602250585C584BC
:1020A000858345830582C5810125C580FD688580BE
:1020B000BE6846800326467004706C0084840483E6
:1020C0008481089105930292FFF7EAFD0BB0F0BD01
:1020D000F0B503AF8DB001920A46014602A8022670
:1020E0000685C684002585830682C6810126C680B2
:1020F000FE688680BC6844800324447001707100CF
:10210000818481810A920895079301990491FFF7D0
:10211000C7FD0DB0F0BDD4D4F0B503AFA1B00192AE
:1021200009910BAA022111820791D1810121069107
:10213000D18080215170089010700020908310850C
:10214000BD6869009181109011901490002B5CD0B3
:1021500009B200910F2149030591014602930495AC
:1021600004E0039988B2029B98424ED20C46014685
:10217000FF319942039101D8FF2100E0191B0BAAFE
:102180005180002DEDD000994843019940180A90E4
:102190000020014623E02546059C13940BA8FFF779
:1021A0005DFE16A8079A0285002181830282069AA5
:1021B000428003224270089A0270154B1F93099ABD
:1021C0001E921C911B942C46049D19931892114940
:1021D0001791FFF765FDB0B2A8423146C1D206465D
:1021E000FF36AE4201D8FF2200E06A1A0BAB9A809C
:1021F00040000A9A10180D9021430804CBD1099889
:1022000013900BA8FFF72AFEE5E721B0F0BDC0460A
:10221000020002000100010081B00020009002498C
:10222000086001B07047C046540000400148FF21DB
:102230000160704754000040D0B502AF82B0074C37
:10224000FF232360064B03400648181801F062FB89
:1022500000200190206002B0D0BDC0465400004074
:10226000FFFF030000000147B0B502AF82B0074D89
:10227000FF2028600120420405480024214601F087
:1022800081FB01942C6002B0B0BDC04654000040F8
:1022900000000147B0B502AF82B00A46074DFF21EA
:1022A000296007490140074808180024214601F029
:1022B00069FB01942C6002B0B0BDC04654000040E0
:1022C000FFFF030000000147B0B502AF82B0084C29
:1022D000FF232360074B1840074D40191940491947
:1022E00001F018FB00200190206002B0B0BDC04694
:1022F00054000040FFFF030000000147F0B503AFAA
:10230000B1B01991064600F0E5FAAA4C149020608D
:10231000A94D0E962E800126B0021590821CA7486A
:10232000A749FFF789FF00200D90FFF7A3FC19993B
:1023300033030129039600D087E0288812900328F0
:1023400000D8D5E0119325AD0221A9830020139078
:1023500028820122EA809B48288029851891E984F7
:1023600010921003129C21B201F086FB064668838E
:10237000A20815988442114600D380216980104636
:1023800017910F9201F088FB1690A88046432E8388
:102390004100A984894E2A9613982890279634469E
:1023A00084480068119E80192D902846FFF778FC1C
:1023B000109828702B9840422883688B404268838D
:1023C00081482A900F98400080197A49096840187E
:1023D0002D902846FFF764FC2B9840422883688B99
:1023E000404268832A94129C20467849084080190C
:1023F0007049096840182D902846FFF751FC18983D
:1024000028702B9840422883688B404268836E482E
:102410002A90032018904443A00840008019654C7E
:10242000216840182D902846FFF73AFC1698800046
:102430002168179A009201908B1918980A46FFF7A5
:1024400027FE3346039E5C4D19996148016021685F
:102450002C88042C43D3129466081193C818189042
:1024600001201990139609E07608199840001990F8
:1024700080B213998142179D294633D91898179035
:102480001891002EF0D070001690B4000D9D0FE052
:10249000C1806900179A89182D91A900189A891886
:1024A0002A912791FFF7FCFBFF35ADB2B542DBD295
:1024B00025A802210185169AC2848484042282837D
:1024C000418304830282C181848181801999418082
:1024D000E1490180711BFF29DAD3FF21D8E72A46A1
:1024E0000D460CE0D6480168039ED64A119B05E0D4
:1024F0002A46D7480121016021680D46129CC81860
:10250000854214D1802C204600D380200090802C5E
:1025100002D81C46012002E020461C46C00901905A
:1025200006202A462B46FFF7B3FDC64A23461AA8C3
:10253000022101858183169101820321049141705A
:102540007F20C1010E98012800D8F7E0029114996C
:10255000CA181992891C0591C9180C9101242346A7
:10256000224621460B940CE01399491E520093B267
:10257000159880B2400815900E9883420B9C00D3AA
:10258000E2E013911AAE7480062131701892950022
:102590003585B583358212935900179101F07CFA85
:1025A0008028014600D38021B180802812D820469F
:1025B00011E0C0466C20002070200020FE1B0000AF
:1025C000743C000002030000FE1F0000FEFF00003C
:1025D00074200020C009F0806843F084708311905B
:1025E000F081199822901095149D1F951C953046E6
:1025F000FFF756FB34702295179C65191F953046DE
:10260000FFF74EFB16983070229519981C903046B3
:10261000FFF746FB189A90B20428A5D31AAE169974
:10262000B18431830D993182F1810499317015990A
:102630004900B1814008401E70800C982290A51C72
:10264000149C28190F901F9089B207917E48081892
:102650001C903046FFF724FB7C483083199968189A
:102660000D460890229012988000801E0690001956
:102670000A901F903046FFF713FB7448B0841599F9
:102680004843B0811798801E09902C46401912903B
:10269000229070480799401A1C903046FFF700FBC3
:1026A000169D358306980419229407940F981F905D
:1026B0003046FFF7F5FA654830831098308211985C
:1026C000F081B5810120179030701F9408981C90FC
:1026D0003046FFF7E5FA3570129822901F900C985B
:1026E0001C903046FFF7DCFA5848B08117983070DC
:1026F0000A982290149809990C181F9407981C9016
:102700003046FFF7CDFAB58435700F9822903046E9
:10271000FFF7C6FA4D48B084B581229412981F90F5
:10272000059C1C943046FFF7BBFAB58417983070AF
:1027300022943046FFF7B4FA189A15E733468031F1
:102740001498801C059004E0C80102994118039B6D
:102750003C4A1588802D199501D38020199019982D
:102760000090802D029101D81C4600E0EC090194F4
:102770000420002314990A460E46FFF789FC25A879
:10278000169BC384189461008184304A428362435B
:102790000283C38181810399C1808480199949088A
:1027A00041802E490180059A2D9269007118891E79
:1027B0002A912792FFF774FA7D20C001159080308E
:1027C00030A908802048039E041F20461795169DB7
:1027D0002A46FFF731FD00960196032013901499C5
:1027E0000A462346FFF774FC30A91598088016485E
:1027F000841F20462A46FFF71FFD009601961348C6
:102800001799014014980918139D28460A46234633
:10281000FFF75EFC30A9029808800B48861E304600
:10282000169AFFF709FD0648016819980090189854
:1028300001902846149A3346FFF74AFC31B0F0BDA8
:102840006C20002070200020FE1B0000FEFF000016
:1028500074200020FE1F000006030000010300009A
:10286000232040060068402101404842484170470B
:1028700080B500AF034A136849040A0C1946FFF7F4
:10288000E1F980BD6C200020B0B502AF0D460446D2
:102890000A480088884204D0094801682846FFF7A2
:1028A0002DFD002C06D00748006869040A0C21465B
:1028B000FFF7C2FC0020FFF79DF9B0BD702000209B
:1028C000742000206C200020014908607047C04639
:1028D00004000020014800687047C0460400002042
:1028E000032801D803490874042801D30020704745
:1028F0000120704708000020F0B503AFA1B00546E5
:10290000B648037C0020AB4200D845E30B881B0B84
:1029100000D041E3012213038C889C4200D33BE3A7
:102920000F92142214460E956C43F74D28190B9004
:1029300014911499069200F0EDFF149881890029F2
:1029400013D10021415EFC4801F096F880B20123CA
:10295000012800D8184616A9088015A8092200F0F9
:1029600025FBE9480019159981810E984200E54937
:10297000885A11928C18002806D1FFF785F9002893
:1029800001D1012040032080FFF774F916A900202F
:102990001090088005200603301F02220C94144674
:1029A000FFF74AFC7F20C00116A90880B01F0790DE
:1029B00022461294FFF740FCE048B33016A9088085
:1029C0003046083804902246FFF736FC16A9DB484B
:1029D000088030460A382246FFF72EFC16A9D84850
:1029E000088030460C382246FFF726FCC548007C9C
:1029F000BF21CA0116A90A8009220D92D24308926A
:102A00005043119C001B139680191838129AFFF737
:102A100013FC1498808816A90880341B0E3C2046AD
:102A2000129AFFF709FC0F980090019007202146A9
:102A30002246109E3346FFF74BFB0F980090019003
:102A40000D98214622463346FFF742FB0B988089BA
:102A5000AC4C227C16A908800E9810184000139ADE
:102A6000101A1038129E3246FFF7E6FB207C149CA9
:102A7000E28916A90A80089A921D42431198101AF9
:102A8000139A801812383246FFF7D6FB9D48007C17
:102A9000228A16A90A80089A141D6043119A801A86
:102AA000139E143E8019129AFFF7C6FB9548007CCE
:102AB0000F99009101914443139961180E9A80185F
:102AC0004000091A16391198201A8319129E3046AF
:102AD000079AFFF7FDFA1498C08816A90880139882
:102AE000841E20463246109EFFF7A6FB0F980090EA
:102AF00001900D982146059422460C9C3346FFF721
:102B0000E7FA2088FFF776F88E48232149060968FE
:102B1000490603D4411E00280846F6D12088FFF755
:102B2000A9F87848007C002833463146139C32D0FF
:102B3000291D0246139C0B888E1E36889B197343F1
:102B40005B001C191431521EF5D16E49143100225C
:102B500013461292119207E073001C190D461435AA
:102B6000401E1346149912D010C1AE88129AB24278
:102B700000D8129614916E88B34200D833461A4694
:102B800029462B88119D9D42E6D81193E4E71298BF
:102B9000410011984600109620461E4603930D46AC
:102BA000FFF792FE10982018149041194A197300EB
:102BB000D518E818F94E7462149CB46234462C346B
:102BC00026C435460290B063039858430390307C86
:102BD00000280F9E00D1D2E1002452E0080000201E
:102BE0000A9C201DED4A0B99551800881290FFF79A
:102BF0004BF82881E94DFFF73DF8099800F0F2FC09
:102C0000607AEA6AA96B002800D17FE012980090F0
:102C10000196032630461346FFF73AFAAA6B287C42
:102C20000F990091089C60430B99139B5D1A183D06
:102C300041190F98129BFFF76FFAD848007C0F9943
:102C400000910F99019160434119D44D30460F9E78
:102C50000A46049BFFF73CFA287C009601960B99E4
:102C6000139A531A0E3B6043401A11181839032067
:102C70000A46FFF72DFA149C641C287C844200D37A
:102C80007DE106986043C649081881880D910A9035
:102C900040880E906600FEF7F7FF0B96A853FEF7EC
:102CA000E9FFE0B2099000F09DFCBD4B998858887F
:102CB00041434900139A8918002C149444D01833C6
:102CC0002246054612911E889C1E248866436D4349
:102CD00075196D0069181433521E2546F3D1B04B97
:102CE0001833149C129E1A889D1E2D886A434043F7
:102CF0001018400086191433641E2846F3D1A74DDE
:102D0000149C22E0080000207820002012980090F7
:102D1000019604200023FFF7BBF9AA6B287C0096DC
:102D2000089C60430B99401A1399091818393046CA
:102D3000129BFFF7F1F98FE7144500004D3E0000AC
:102D400080BF00001FA107000E460E980090019062
:102D500003203246059BFFF7BBF9914B98885A88B0
:102D60005043400013994118686B002C0CD0183365
:102D70001D889E1E368875435243AA18520051186A
:102D80001433641E3246F3D1149A9200834EB41861
:102D9000626911940E9E00960F9D01953346FFF7D0
:102DA0002BF961697D4C626BA06B009601952B46F7
:102DB000FFF722F9A16B0095019528460A46079B6B
:102DC000FFF766F9A16B00950195092000230A46DB
:102DD0001293FFF75DF9616BA36B009601950320D9
:102DE0000A46FFF775F96E4DA8886B885843400076
:102DF00013994218119840691190206B1499002979
:102E00000DD02C4618342688A51E2D886E435B43B2
:102E1000F3185B009A181434491E2B46F3D10E9D0B
:102E20000095019511990F9E3346FFF7E5F85B4C2D
:102E3000226B616BA06B009601952B46FFF7DCF8C7
:102E4000574B9988588841434900139A8A18149916
:102E5000002923D01833054611921E889C1E248811
:102E600066436D4375196D00AA181433491E254633
:102E7000F3D111464A4B1833149C119E1A889D1E9B
:102E80002D886A4340431018400086191433641E8D
:102E90002846F3D132460F9E404C00E01146A36B0A
:102EA0000E980090019002242046FFF7F1F80D984B
:102EB0000028129B00D193E6410011910C9410E080
:102EC00016A80485C484119A828489191E91FEF77C
:102ED000E7FE129BFF339BB20D9883420F9E00D3F7
:102EE0007EE6C51AFF2D00D3FF252C4A516B906B4F
:102EF000D26A0096019512935B001093D218344663
:102F00000E9E3346FFF778F816A8C4808580468069
:102F1000244901801498002813980DD02048011DE1
:102F2000149A13980B888E1E36889B1973435B0086
:102F300018181431521EF5D116A90C9C0C82CC81A4
:102F4000119A8A818C834C836A000A83109E8019AF
:102F500018901248806B1B90149A002A139B1946F4
:102F6000AED00F48001D19460388851E2D885B19B9
:102F70006B435B0059181430521EF5D1A0E703983B
:102F800002990C18FEF780FE0749884200D30026FC
:102F9000610C48424841304021B0F0BD080000209B
:102FA000782000200103000001500000F0B503AFBD
:102FB00085B01C460D460390D0017F21C9010A1A35
:102FC0001F49886B0E4604A90A800222FFF734F9D4
:102FD000706A610026468AB229460292FFF72CF9F0
:102FE000FEF752FE0446FEF745FE1548416A0125EC
:102FF00000960195072000230A46FFF749F810487C
:10300000836B416A0096019503200A46FFF760F83A
:103010002046FEF7EFFD0B482321490609684906C3
:1030200003D4411E00280846F6D12046FEF722FEB2
:103030000348416A0398029AFEF704FE05B0F0BD0A
:10304000080000201FA10700F0B503AF8DB00446B3
:10305000FEF71AFE0590FEF70DFE6748806B0CA97F
:10306000664A0A800222FFF7E7F805200103002CD8
:1030700007910DD06248001D224607990388851EDE
:103080002D885B196B435B0059181430521EF5D123
:10309000142060435A4E3518688906906A88A888BB
:1030A000554B9B6B0092019060000890069A101897
:1030B000401C82B20C20FFF70BF8B0887288504396
:1030C00040000799411828460A3003900495A81C2F
:1030D0000690002C0ED03346183326461D88981EC5
:1030E000008845435243AA18520051181433761EE3
:1030F0000246F3D14048836B03980088069E3288CD
:1031000000920192089A1018801C82B20C25284661
:10311000FEF7DEFFA0003849081841693088012613
:10312000009001960798031F28463246FEF7D0FF0D
:10313000049D6A8A3048006B0BA90A800222FFF7BF
:103140007BF82D48016B00960196092000230A4662
:103150000893FEF7BDFF059E3046FEF74BFD123586
:103160002848232149060968490603D4411E00283E
:103170000846F6D13046FEF77DFD2888002838D075
:1031800009A8089901801C49096B0222FEF75AFD23
:103190000698008800282CD0059411E0099B0AA904
:1031A0000B80401C089C6043400010180222FFF76F
:1031B00043F8641C0698008808948442059C18D241
:1031C0000F4DA9886B8859434900079A8A18002C2B
:1031D000E4D02946183125460C888E1E3688744363
:1031E0005B43E3185B009A1814316D1E3346F3D12C
:1031F000D4E70DB0F0BDC04608000020243C00001C
:10320000782000201FA107001421414301484018E5
:103210007047C0467820002080B500AF8100074A83
:1032200051184A6914214143054840184088400418
:10323000010C1046FFF72EF880BDC04608000020A4
:103240007820002080B500AF0B468100064A511857
:103250004969142242430548801840884004020C02
:103260001846FEF7EFFC80BD080000207820002003
:1032700080B500AF8200074B9A185369142242436D
:103280000548801840884004020C1846FEF7D4FF19
:1032900080BDC0460800002078200020F0B503AFB4
:1032A00081B015460446002909D014206043114A14
:1032B000105A4004020C1048406AFEF7BDFF0E4E43
:1032C000F06A142161430B4A5118002D06D08988F9
:1032D00049040A0C2946FEF7AFFF05E08988490436
:1032E0000A0C716AFEF7F0FF6000305AFEF782FCAC
:1032F00001B0F0BD7820002008000020F0B503AF39
:1033000081B015460446002909D014206043124AB2
:10331000105A4004020C1148406AFEF78DFF0F4E10
:10332000F06A142161430C4A5118002D06D0898897
:1033300049040A0C2946FEF77FFF05E08988490405
:103340000A0C716AFEF7C0FF600030180089FEF7B2
:1033500051FC01B0F0BDC0467820002008000020DC
:10336000D0B502AF82B00921C943084A127C4A4352
:103370004000101A0649411801AC02222046FEF70F
:1033800061FC0020205E02B0D0BDC04608000020D5
:10339000E84F0000F0B503AF81B00093044605206C
:1033A000000300290BD0094D2D1D2E88AB1E1B8854
:1033B000F6185E43730018181435491EF5D18018AD
:1033C0002146009AFEF738FF01B0F0BD78200020BA
:1033D000F0B503AF83B0029301900F48858846880B
:1033E00075436D0005231B03ED1800290CD0183020
:1033F0000388841E2488634376439B195B005D1910
:103400001430491E2646F3D1A8180199029AFEF7F6
:1034100013FF03B0F0BDC04678200020F0B503AF25
:1034200081B000930524240300290BD0084D2D1DE5
:103430002E88AB1E1B88F6185E4373001C191435CA
:10344000491EF5D1A118009AFEF7FCFB01B0F0BDB2
:1034500078200020F0B503AF83B0029301900F4CA9
:10346000A588668875436D0005231B03E8180029AD
:103470000CD018342388A51E2D886B4376439B19E6
:103480005B0018181434491E2E46F3D18118019898
:10349000029AFEF7D7FB03B0F0BDC04678200020AB
:1034A000F0B503AF82B00192002B21D0114E04E0A1
:1034B0000580891C801C5B1E1AD00A88D409E4B2DE
:1034C000019D64198D2C35460DD880250092154339
:1034D000EDB2862C02D3863CA54003E08626341B41
:1034E000044EE540009A14B2002CE1D56D42DFE7AE
:1034F00002B0F0BDFF7F0000002A05D00B881B043E
:1035000008C0891C521EF9D17047D4D480B500AFD1
:1035100082B00921C943074A127C4A434000101A6D
:103520000549411801A80222FEF78CFB019800040E
:1035300002B080BD08000020E84F0000F0B503AFE6
:1035400087B003920C460590FEF79EFB0646FEF7F9
:1035500091FB7F20C00106A90880154D0222284654
:10356000FEF76AFE1348416A01200494009401901A
:103570000C20039A2B46FEF7ABFD3046FEF73AFBD4
:103580000D48232149060968490603D4411E002835
:103590000846F6D13046FEF76DFB0648416A0498AE
:1035A0004004020C0598FEF74DFB07B0F0BDC04685
:1035B000FA4F0000080000201FA107000248406ADF
:1035C000024940187047C04608000020000001472B
:1035D0000248806A024940187047C046080000202F
:1035E00000000147F0B503AF8DB0054614206843D5
:1035F0006F490A5A06920C18A088079060880C90B0
:10360000E0890123D9030A916A4E00280B9300D167
:1036100081E0A800684A1018089040690490916BF6
:10362000107C0C9A009201930523DB4305930394CD
:103630004343F31840194000181A831F03200990D0
:10364000049AFEF745FD0898416962895A48006B63
:10365000521C92B20C9B009301920A9A02920B9C0C
:1036600022460C9BFEF7ECFC5348016B007C0C9A45
:1036700000920194059A121D6A43B21804928000C8
:10368000101A831E09980A46FEF722FD089C6069FD
:1036900003994A894849496A0C9B009301920A9A06
:1036A00002920B9A069BFEF7CBFC61694248007CB4
:1036B0000C9A00920B9A019240194000331A099813
:1036C0000A46FEF705FD61693B48036B0C980090C4
:1036D0000B9801900A46FEF7DBFC284600F06EF8D6
:1036E00061693548007C0C9C00940B9A0192059A04
:1036F0005043049A1018031F09980A46FEF7E8FC85
:10370000089841692C48836B00940B9801900A46F5
:10371000FEF7BEFC21E0A80027490818099040697F
:103720006489496A0C9A009201940A9A02921A4694
:103730001C46069BFEF784FC099841691E48007CE4
:103740000C9A0092019440194000331A03200A4653
:10375000FEF7BEFC284600F031F8A800164A101803
:103760004169906A002D0DD0114A121D1036138840
:10377000941E24881B1963435B009E1914326D1E2E
:10378000F5D100E010360C9A0092079C0194324665
:103790000B9D2B46FEF730FC0748836AC16A0094F4
:1037A000019502200A46FEF773FC0DB0F0BDC0463D
:1037B00078200020F04F000008000020F0B503AF93
:1037C00083B014214143284A5218117A568803299C
:1037D00033D0022927D0012944D1800023490C1875
:1037E00061690125009601952148031F03200A46BF
:1037F000FEF76EFC6169009601951D48831E284600
:103800000A46FEF765FC6169009601951848831C1D
:1038100006200A46FEF75CFC6169009601950520CA
:103820000A46134B1CE0800010490818416901202A
:10383000009601900E48831C10E080000B490D1883
:1038400069690124009601940520094B0A46FEF798
:103850003FFC6969009601940548831F06200A46CB
:10386000FEF736FC03B0F0BD7820002008000020F1
:10387000FA4F0000B0B502AF064C2078002808D0FF
:103880000025E8B2FFF7E0FB6D1CE8B22178884222
:10389000F7D3B0BDC8200020F0B503AF81B0054616
:1038A000002004290FD80C4608490C70002C0AD0BF
:1038B0000026F0B22946FFF71FF8002803D0761C37
:1038C000F1B2A142F5D301B0F0BDC046C82000203E
:1038D000F0B503AF81B0BF20C6010D4C20780028A1
:1038E0000FD0002505E06D1CE9B222789142064612
:1038F00008D2E8B2FFF734FD31B28842F3DB084664
:10390000F1E7304600B2C117884301B0F0BDC046B0
:10391000C82000200300F0B50F2A07D90E00064387
:10392000032734000D003C403E4203D00024A24255
:1039300024D1F0BD87182E681E606E685E60AE6888
:103940009E60EE681035DE601033FE1A0F2EF2D83E
:1039500013000F25103B1B0901331B01C9182A4016
:10396000C318151B032D05D89408A400121B1B199E
:103970000919DBE70D591D510434F2E70D5D1D55A2
:103980000134D4E7F0B5050003242B0025421CD1F7
:10399000032A16D92C00CBB21E021E4333041E4349
:1039A00057193B1B0F2B16D813091B01D21AEB1802
:1039B0001C009F183D1B032D13D89408A400121B54
:1039C0001B199A1893420ED1F0BD002AFCD0297021
:1039D000013A0135D9E726606660A660E6601034DA
:1039E000DFE740C4E6E719700133EBE710B5084A9A
:1039F00008490948FFF78EFF0021084A0848FFF7E9
:103A0000C1FF00F00FF800210800FDF76BFDFEE795
:103A100044000000944000100000002088200000B6
:103A20004400002070B500260E4D0F4C641BA410FE
:103A3000A6420CD10D4B002B01D000F000F800265F
:103A40000B4D0C4C641BA410A64205D170BDB300F5
:103A5000EB5898470136EBE7B300EB58984701362F
:103A6000F2E7C046440000204400002000000000AF
:103A7000440000204400002090B501AF04004C40F9
:103A8000C217CB1750405940801AC91A00F004F8E9
:103A9000E4176040001B90BD012925D300D1704779
:103AA000884201D200207047024684465FA0013060
:103AB000130C8B4201D31A00A038130A8B4201D396
:103AC0001A00503813098B4201D31A002838930882
:103AD0008B4201D31A00143853088B4200D30A38A2
:103AE0000200604600231047002080B500F0A6F8D1
:103AF00080BDC04600BFCA07904200D3801A5B4118
:103B00008A07904200D3801A5B414A07904200D353
:103B1000801A5B410A07904200D3801A5B41CA06B3
:103B2000904200D3801A5B418A06904200D3801AEB
:103B30005B414A06904200D3801A5B410A069042DC
:103B400000D3801A5B41CA05904200D3801A5B41C2
:103B50008A05904200D3801A5B414A05904200D307
:103B6000801A5B410A05904200D3801A5B41CA0467
:103B7000904200D3801A5B418A04904200D3801A9D
:103B80005B414A04904200D3801A5B410A04904290
:103B900000D3801A5B41CA03904200D3801A5B4174
:103BA0008A03904200D3801A5B414A03904200D3BB
:103BB000801A5B410A03904200D3801A5B41CA021B
:103BC000904200D3801A5B418A02904200D3801A4F
:103BD0005B414A02904200D3801A5B410A02904244
:103BE00000D3801A5B41CA01904200D3801A5B4126
:103BF0008A01904200D3801A5B414A01904200D36F
:103C0000801A5B410A01904200D3801A5B41CA00CE
:103C1000904200D3801A5B418A00904200D3801A00
:103C20005B414A00904200D3801A5B410A009042F7
:103C300000D3801A5B4118467047D4D481B00090FD
:103C4000009801B0704782B00191009000980199EE
:103C500002B070470200040008001000200040007D
:103C60008000000100020004000801D4440000208C
:103C700000000547803F803F803F803F803F803F7E
:103C8000803F803F803F803F803F803F803F803F3C
:103C9000803F803F803F803F803F803F803F7F3F2D
:103CA0007F3F7F3F7F3F7F3F7F3F7F3F7F3F7F3F24
:103CB0007F3F7F3F7F3F7F3F7F3F7F3F7E3F7E3F16
:103CC0007E3F7E3F7E3F7E3F7E3F7E3F7E3F7E3F0C
:103CD0007D3F7D3F7D3F7D3F7D3F7D3F7D3F7D3F04
:103CE0007C3F7C3F7C3F7C3F7C3F7C3F7C3F7C3FFC
:103CF0007B3F7B3F7B3F7B3F7B3F7B3F7A3F7A3FF6
:103D00007A3F7A3F7A3F7A3F793F793F793F793FEF
:103D1000793F793F783F783F783F783F783F773FEA
:103D2000773F773F773F773F763F763F763F763FE7
:103D3000753F753F753F753F753F743F743F743FE6
:103D4000743F733F733F733F733F723F723F723FE5
:103D5000723F713F713F713F713F703F703F703FE5
:103D60006F3F6F3F6F3F6F3F6E3F6E3F6E3F6D3FE8
:103D70006D3F6D3F6D3F6C3F6C3F6C3F6B3F6B3FEA
:103D80006B3F6A3F6A3F6A3F693F693F693F683FEF
:103D9000683F683F673F673F673F663F663F663FF4
:103DA000653F653F653F643F643F643F633F633FFA
:103DB000633F623F623F613F613F613F603F603F01
:103DC000603F5F3F5F3F5E3F5E3F5E3F5D3F5D3F09
:103DD0005C3F5C3F5C3F5B3F5B3F5A3F5A3F5A3F13
:103DE000593F593F583F583F573F573F573F563F1E
:103DF000563F553F553F543F543F543F533F533F29
:103E0000523F523F513F513F503F503F4F3F4F3F36
:103E10004F3F4E3F4E3F4D3F4D3F4C3F4C3F4B3F42
:103E20004B3F4A3F4A3F493F493F483F483F473F52
:103E3000473F463F463F453F453F443F443F433F62
:103E4000433F423F423F413F413F403F403F3F3F72
:103E50003F3F3E3F3E3F3D3F3D3F3C3F3C3F3B3F82
:103E60003A3F3A3F393F393F383F383F373F373F96
:103E7000363F363F353F343F343F333F333F323FA9
:103E8000323F313F313F303F2F3F2F3F2E3F2E3FBC
:103E90002D3F2D3F2C3F2B3F2B3F2A3F2A3F293FD1
:103EA000283F283F273F273F263F253F253F243FE8
:103EB000243F233F223F223F213F213F203F1F3FFE
:103EC0001F3F1E3F1D3F1D3F1C3F1C3F1B3F1A3F16
:103ED0001A3F193F183F183F173F173F163F153F2E
:103EE000153F143F133F133F123F113F113F103F47
:103EF000103F0F3F0E3F0E3F0D3F0C3F0C3F0B3F5F
:103F00000A3F0A3F093F083F083F073F063F063F79
:103F1000053F043F043F033F023F023F013F003F94
:103F2000FF3EFE3EFC3EFB3EFA3EF83EF73EF63ECE
:103F3000F43EF33EF13EF03EEF3EED3EEC3EEA3E17
:103F4000E93EE83EE63EE53EE33EE23EE13EDF3E60
:103F5000DE3EDC3EDB3ED93ED83ED73ED53ED43EAB
:103F6000D23ED13ECF3ECE3ECD3ECB3ECA3EC83EF7
:103F7000C73EC53EC43EC23EC13EC03EBE3EBD3E43
:103F8000BB3EBA3EB83EB73EB53EB43EB23EB13E91
:103F9000AF3EAE3EAC3EAB3EAA3EA83EA73EA53EDF
:103FA000A43EA23EA13E9F3E9E3E9C3E9B3E993E2D
:103FB000983E963E953E933E923E903E8F3E8D3E7D
:103FC0008C3E8A3E893E873E863E843E823E813ECE
:103FD0007F3E7C3E793E763E733E703E6D3E6A3E4D
:103FE000663E633E603E5D3E5A3E573E543E513E05
:103FF0004E3E4B3E483E453E423E3F3E3B3E383EB7
:10400000353E323E2F3E2C3E293E263E233E203E6C
:104010001C3E193E163E133E103E0D3E0A3E073E24
:10402000043E003EFB3DF43DEE3DE83DE23DDB3D20
:10403000D53DCF3DC93DC23DBC3DB63DB03DA93D9E
:10404000A33D9D3D973D903D8A3D843D7B3D6F3D29
:10405000623D563D493D3C3D303D233D173D0A3DC7
:10406000FB3CE23CC93CB03C973C7B3C493C173CA8
:06407000C93B493B0000C2
:1040780048C0FF6F01000000D4FBFF6F0100000083
:0C40880094400010000000201100000017
:10409400008000000060010000000000000000003B
:1040A400000000000000000001000000007001009A
:1040B40080700100007101008071010080700100B6
:1040C4008074010080780100807C0100007D010083
:0440D400807D0100EA
:04000003000019C917
:00000001FF
